:020000040800F2
:1008000000C000202D9D0008193800081B38000882
:100810001D3800081F3800082138000800000000BB
:100820000000000000000000000000002338000865
:100830002538000800000000273800082938000883
:100840007D9D00087D9D00087D9D00087D9D000820
:100850007D9D00087D9D00087D9D00087D9D000810
:100860007D9D00087D9D00087D9D000831380008B1
:100870007D9D00087D9D00087D9D00087D9D0008F0
:100880007D9D00087D9D0008413800085138000812
:100890006138000871380008813800087D9D000823
:1008A0007D9D00087D9D00087D9D00087D9D0008C0
:1008B0007D9D000800000000000000009138000845
:1008C000A13800087D9D00087D9D00087D9D0008E1
:1008D000B1380008C13800087D9D00087D9D0008E2
:1008E0007D9D0008D93800080000000000000000CD
:1008F00000000000000000000000000000000000F8
:10090000000000007D9D0008000000007D9D0008A3
:1009100000000000000000007D9D0008E93800088C
:100920007D9D00087D9D00087D9D00087D9D00083F
:100930007D9D000800000000000000000000000095
:100940007D9D0008F93800087D9D00087D9D000808
:100950007D9D00087D9D00087D9D00087D9D00080F
:100960007D9D00087D9D00087D9D00080000000021
:100970007D9D00087D9D00087D9D00080000000011
:10098000093900087D9D00087D9D000800000000D9
:1009900010B5054C237833B9044B13B10448AFF3B9
:1009A00000800123237010BDC81A00200000000041
:1009B00028B4000808B5034B1BB103490348AFF343
:1009C000008008BD00000000CC1A002028B40008F8
:1009D000034613F8012B002AFBD1181A013870477F
:1009E00001F0FF01102A2BDB10F0070F08D010F8E0
:1009F000013B013A8B422DD010F0070F42B3F6D1E4
:100A0000F0B441EA012141EA014122F007047FF0FC
:100A100000070023F0E80256083C85EA010586EA53
:100A2000010685FA47F5A3FA87F586FA47F6A5FA8F
:100A300087F68EB9EED1F0BC01F0FF0102F007029B
:100A400032B110F8013B013A83EA010313B1F8D146
:100A50000020704701387047002D06BF3546033827
:100A6000073815F0010F07D1013015F4807F02BF60
:100A7000013015F4C03F0130F0BC0138704700BFB1
:100A800010B588B00023039304930593069307934E
:100A90000268254B9A4201D008B010BD03F5D63349
:100AA0009A6D42F000729A659A6D02F0007201929E
:100AB000019ADA6C42F00102DA64DB6C03F00103A4
:100AC0000293029B4FF4C053039302230493002428
:100AD0000594032306930923079303A94FF090403D
:100AE00004F0F6FF22460421132004F07BFC1320BF
:100AF00004F0BEFC22460421142004F073FC1420F0
:100B000004F0B6FC22460421152004F06BFC1520ED
:100B100004F0AEFC22460421162004F063FC1620EB
:100B200004F0A6FCB8E700BF0064004008B5026806
:100B30000D4B9A4200D008BD0C4A936D23F0007310
:100B400093654FF4C0514FF0904005F01BF913200E
:100B500004F0A6FC142004F0A3FC152004F0A0FC73
:100B6000162004F09DFCE6E70064004000100240FF
:100B7000F8B5134B1E68134B1E60134B1F68134CC4
:100B80000A2221460433186809F040F904F12005CF
:100B90002146284609F03CFA0A222146384609F047
:100BA00035F92146284609F033FA0A222146304613
:100BB00009F02CF92146284609F02AFAF8BD00BFB1
:100BC0009075FF1FE41A00209475FF1F000000209D
:100BD000092823D8DFE800F0050B080E1114171AB6
:100BE0001D200F4B196070470D4B996070470C4BDF
:100BF000596070470A4BD9607047094B19617047BB
:100C0000074B59617047064B99617047044BD96196
:100C10007047034B19627047014B5962704700BF20
:100C2000003100202DE9F0418AB00024059406949B
:100C3000079408940994414BDA6C42F00402DA6498
:100C4000DA6C02F004020192019ADA6C42F080023E
:100C5000DA64DA6C02F080020292029ADA6C42F0F4
:100C60000102DA64DA6C02F001020392039ADA6C90
:100C700042F00202DA64DB6C03F002030493049B8B
:100C8000DFF8C48022464FF40051404605F024F9B5
:100C90002B4F224640F22131384605F01DF92246FD
:100CA0004FF400414FF0904005F016F94FF4005317
:100CB0000593012506950795089405A9404604F07B
:100CC00007FF4FF44043059303260696079405A9B2
:100CD000404604F0FDFE0B2305930696079405A9F4
:100CE000184804F0F5FE40F2EF13059306960794BA
:100CF00005A94FF0904004F0EBFE40F2213305933C
:100D000006950794089405A9384604F0E1FE41F6DB
:100D10001E4305930696079405A9384604F0D8FEAD
:100D20004FF40043059306950794089405A94FF0E6
:100D3000904004F0CDFE0AB0BDE8F0810010024002
:100D400000040048001C0048000800482DE9F84F46
:100D50007D4C96220021204609F078F823220021BC
:100D600004F1A00009F072F80025C4F89650C4F808
:100D70009A50A4F89E5040F6C412294604F25240FC
:100D800009F064F84FF461723F2104F1C30009F0E7
:100D90005DF84FF03F33C4F84734C4F84B34C4F81F
:100DA000413EC4F8453EC4F8493E84F84D3E4FF4F8
:100DB0004872294604F64E6009F048F8A4F84F54EA
:100DC00084F85154614E4FF0B4094A4629463046E2
:100DD00009F03CF806EB09084A462946404609F066
:100DE00035F806F5B4774A462946384609F02EF814
:100DF000DFF878A19AF8023065F3C7138AF8023059
:100E000006F50771384609F003F93846FFF7E0FDAB
:100E10004F4BB3F8009027F8009006F50E71384656
:100E200009F0F6F83846FFF7D3FD27F8009006F5ED
:100E30001271304609F0ECF83046FFF7C9FD26F88C
:100E4000009006F52B71304609F0E2F83046FFF7C6
:100E5000BFFD26F8009006F54471404609F0D8F829
:100E60004046FFF7B5FD28F8009006F56A71404648
:100E700009F0CEF84046FFF7ABFD28F80090304669
:100E8000FFF7A6FD3218334BB3F800B093F8029089
:100E900026F800B082F802904046FFF799FD08EB73
:100EA000000328F800B083F802903846FFF790FD61
:100EB0003B1827F800B083F8029006F58867642293
:100EC0002946384608F0C2FF06F2A441384609F028
:100ED000BBF82149384609F09BF83846FFF778FD02
:100EE00003461E4A1068F85041F26E13E55484F828
:100EF0003E5E84F8405E84F8195EC4F8385E84F87B
:100F0000175E84F8165E032384F8183E84F81B5E8F
:100F100044F62063C4F8203E114B124A1A60C4F80C
:100F20002C5E84F81D5E84F83C5E012384F83F3E0D
:100F300084F83D3E0C4B1D608AF807505D60052328
:100F400086F8BB34BDE8F88FD03100205400002073
:100F500060B5000864B500082000002068B50008EE
:100F6000CC2F002080EE3600EC1A0020A44B00208D
:100F70002DE9F04700AFBB4A5368023352F8238093
:100F80004046FFF725FD0446C31D23F00703ADEBE4
:100F9000030D6E4602460021684608F057FF621EA8
:100FA00040F2FE339A426CD8AF49404609F054F8FB
:100FB000002800F00A81AD4D40F2DC5200212846A5
:100FC00008F044FFDFF8DCA20AF2BC41284609F031
:100FD0003BF82846FFF7FCFCA54BB3F8009025F83A
:100FE00000900AF59961284609F012F82846FFF7A3
:100FF000EFFC2A189F4B19889B782952937028463A
:10100000FFF7E6FC034629189B4A1068E85013795D
:101010000B712846FFF7DCFC25F800904146284676
:1010200008F0F6FF2846FFF7D3FC25F80090284685
:10103000FFF7CEFC2A18914B19889B7829529370A0
:101040008F4D1E220021284608F000FF0A2231465B
:10105000204608F0DBFE3046FFF7BAFC02463418A3
:10106000884B03CBB05061601B882381864928469A
:1010700008F0CEFF3146284608F0CAFFBD46BDE85D
:10108000F0877A4D40F2DC520021284608F0DEFE5F
:10109000DFF8109209F2BC41284608F0D5FF284637
:1010A000FFF796FC724BB3F8008025F8008009F535
:1010B0009961284608F0ACFF2846FFF789FC2A18FA
:1010C0006C4B19889B78295293702846FFF780FC57
:1010D00003462918684A1068E85013790B712846AE
:1010E000FFF776FC25F800802846FFF771FC674B78
:1010F0001B882B522846FFF76BFC654BB3F800802A
:1011000025F800806349284608F082FF2846FFF74B
:101110005FFC25F80080CCB9A8462846FFF758FCAC
:10112000864605EB000C5C4D0FCD48F80E00CCF860
:101130000410CCF80820CCF80C3003CDCCF810000B
:10114000CCF814102B88ACF8183027E0474D28460F
:10115000FFF73EFCDFF850E105440EF12008F446AD
:10116000BCE80F0028606960AA60EB60E6461035B5
:10117000C445F4D1DCF800002860BCF80430AB8032
:10118000384D6B68023355F8230008F049FE6B6850
:101190009A1C002145F8221001336B60334D28461C
:1011A000FFF716FC3D4B1B882B522846FFF710FC1F
:1011B0002F4B1B882B522846FFF70AFC2A182F4B6F
:1011C00019889B78295293703AE73549404608F0D0
:1011D00043FF00286AD0254D40F2DC52002128460A
:1011E00008F034FEDFF8BCA00AF2BC41284608F043
:1011F0002BFF2846FFF7ECFB1D4BB3F8009025F8BA
:1012000000900AF2DC41284608F002FF2846FFF76A
:10121000DFFB2A18174B19889B78295293702846B0
:10122000FFF7D6FB03462918134A1068E8501379D4
:101230000B712846FFF7CCFB25F800904146284665
:1012400008F0E6FE2846FFF7C3FB25F80090284685
:10125000FFF7BEFB2A18094B19889B782952937017
:10126000EEE600BF40430020C4B50008F41A002099
:1012700060B500086CB5000870B5000864B50008DA
:10128000D020002040B400086405002078B5000894
:10129000A4B60008200000207CB50008C0B50008F6
:1012A000C8B500085400002098B50008224D40F24F
:1012B000DC520021284608F0C9FDDFF890A00AF2B0
:1012C000BC41284608F0C0FE2846FFF781FB1B4BB7
:1012D000B3F8009025F800900AF59F61284608F0C1
:1012E00097FE2846FFF774FB2A18154B19889B7840
:1012F000295293702846FFF76BFB03462918114AC1
:101300001068E85013790B712846FFF761FB25F848
:1013100000904146284608F07BFE2846FFF758FB20
:1013200025F800902846FFF753FB2A18064B19882A
:101330009B782952937083E6F41A002060B5000868
:101340006CB5000870B5000864B5000854000020B2
:1013500070B5104D05F1B40405F54471204608F050
:1013600073FE2046FFF734FB0B4B1E88265205F513
:101370006A71204608F04CFE2046FFF729FB2652F2
:101380002046FFF725FB2218044B19889B78215231
:10139000937070BD5400002060B5000864B500086B
:1013A000F8B5454B1B68012B00F08580434B93F843
:1013B0003005303800EB800093F83125303A02EBED
:1013C00040003F4CC4F8040693F83325303A02EB52
:1013D000820293F83415303901EB4202C4F8082632
:1013E00093F83625303A02EB820293F837153039FC
:1013F00001EB4202C4F80C2693F83925303A02EB8F
:10140000820293F83A15303901EB4202C4F81026F3
:1014100093F83C25303A02EB820293F83D153039BF
:1014200001EB4202C4F8142693F83F25303A02EB50
:10143000820293F84035303B03EB4202C4F8182691
:1014400003F02AF81F4DE870D4F8080603F024F8DA
:101450006870D4F80C0603F01FF8A870D4F81006D2
:1014600003F01AF8184E3070D4F8140603F014F88C
:101470007070D4F8180603F00FF8B070134BD4F85E
:1014800010261A60D4F814265A60D4F818269A60E8
:101490000F4F01223146384607F07CF801222946D9
:1014A000384607F099F9044B01221A60D4F81C362B
:1014B0001344C4F81C36F8BDAC2F002054000020A3
:1014C000EC1A0020184400201C440020342F002077
:1014D00030440020F8B5034600284ED04C4AD2F8DC
:1014E0002026002A4AD04B4D4B4B05F25C540FCBC3
:1014F00007C4237005F5AF620023C5F87835A5F859
:101500007C35434BD3F82006D3F82436984250D389
:10151000404D05F5AF660A2231464FF4FA6000FBF4
:1015200003F008F073FC05F25C543146204608F0E5
:101530006FFD2046FFF74CFA384B1B88235205F20B
:101540005451204608F064FD2046FFF741FA221866
:10155000334B19889B78215293702D4BD3F8281662
:10156000304AC2F8301E0022C3F82026C3F82426D1
:10157000C3F828260120C3F82C06F8BD2A4AA2FB8E
:101580000012D209224CC4F824264FF4FA6000FB62
:101590001233C4F828361F4D0A2205F24C5108F0C8
:1015A00035FC0A2205F25451D4F8280608F02EFC26
:1015B00099E74FF4FA6617460A22394606FB00F00F
:1015C00008F024FC05F25C543946204608F020FD62
:1015D0002046FFF7FDF9114B1B88235205F24C51B1
:1015E000204608F015FD2046FFF7F2F922180C4BB3
:1015F00019889B7821529370054AD2F8203601331E
:10160000C2F82036074BC3F8306E0220B5E700BFA2
:10161000EC1A002054000020DCB50008A4B6000835
:1016200064B50008D0310020D34D621038B51049A0
:1016300001F1B40401F54471204608F005FD20468F
:10164000FFF7C6F90B4B1D8825520B49204608F0C1
:10165000DFFC2046FFF7BCF925522046FFF7B8F91A
:101660002218064B19889B782152937038BD00BF11
:101670005400002060B500085021002064B5000827
:1016800008B501F0E7FD0146014801F0ADFE08BDD7
:1016900040430020094A0023C2F820361360C2F8F4
:1016A000C836074981F81C3EC2F8CC36032381F8BE
:1016B0003E3E1D2381F83F3E704700BFEC1A0020DC
:1016C000D031002070B5984B93F83C3E2BB103F01D
:1016D000FF02012A00F0828070BD934B93F83D3EDB
:1016E000DBB2012B1BD0904B93F83D3EDBB2022BBB
:1016F00071D18E4BDB6913F0800FEDD08C4AD2F89C
:10170000D036D2F8D82693423ED2894AD2F8D4169F
:10171000581CC2F8D006CA5C844B1A85DCE7844B9F
:101720000022C3F8D026804B93F83F3E1E2B1CD0DE
:101730001D2B23D07F4A02EB0313D3F8E82D7C4BFB
:10174000C3F8D4267A4CD4F8D4562846FFF740F98B
:10175000C4F8D8060123C4F8D0362A78734B1A850A
:10176000714B022283F83D2EB6E7734A5368023369
:1017700052F823206E4BC3F8D426E3E76C4B03F1F9
:101780000802C3F8D426DDE7694B0022C3F8D0264F
:101790006A4942F210700860C3F8D826624A0123F1
:1017A00082F83C3E92F83F3E624901EB0311D1F8CA
:1017B000F01DC2F8341E292B08D0614A00211160A7
:1017C000222B89D15F4B01221A6085E75C4A4EF6D5
:1017D00060211160F4E7FFF7B9FA7DE7574B1B680A
:1017E0003BB9514BD3F8343E1BB1564B1B68012B10
:1017F00026D04D4BD3F8343E002B7FF46DAF4A4AD0
:1018000092F8183E013BDBB282F8183E002B40F004
:101810000A8402F2524440F6C4120021204608F025
:1018200015FB94F8EC39DBB2032B00F0F783FFF7DC
:101830008DFA00233C4AC2F8343E424A13604BE71B
:101840003F4B1B68002BD4D13F49404808F004FCB3
:10185000044628B33E493D4808F0FEFB0546D0B19A
:101860003C493A4808F0F8FB80B12D1B3A4E9622CD
:101870000021304608F0EAFAEA1C611E304608F002
:10188000D7FA2B4B012283F8DC260DE0284B0022EF
:1018900083F8DC2608E0264B002283F8DC2603E0F0
:1018A000234B002283F8DC261F4890F83F4E214B43
:1018B00003EB0413D3F8EC1D00F2524008F0CCFB0C
:1018C000002800F099832C2C4CD8DFE814F0470056
:1018D0007100DA00DF00E400E900EE009101A100F0
:1018E000A60076001B01AB00B500B000BA00D50021
:1018F000F300FD00020107010C0111011601460170
:101900004B01500155015A01670141014B00D000C4
:10191000FD01F8014B0002024B0007023C011902D5
:101920001E02990268036D03D03100200038014087
:10193000EC1A00205400002040430020C02F00205B
:10194000C82F002054230020ECB5000822360020C8
:10195000F0B5000820000020D4050020C04B012273
:1019600083F81C2EBE4B0022C3F8382E012183F8C9
:101970003D1E83F83C2E032183F8181EC3F8342E35
:10198000B8490A60C3F8382E93F83F4E2A2C40F02D
:101990001083B34B93F81C3E012B7FF49DAEB04BEC
:1019A000013483F83F4E44F62062C3F8202E93E6BC
:1019B000AB4B012283F81C2ED4E7AB4CAB4920463D
:1019C00008F04AFB851DAA4908F05EFBFFF700F806
:1019D00002462946A4F56F7008F02AFA94F8EC390B
:1019E000A4F25244DBB2062B04D09D4B012283F8B3
:1019F0001C2EB7E744F62062C4F8202E032284F898
:101A00003E2E1D2284F83F2E002284F81C2EA9E7CA
:101A1000934B012283F81C2EA4E7914B012283F8FB
:101A20001C2E9FE78E4B012283F81C2E9AE78C4BCD
:101A3000012283F81C2E95E7894B012283F81C2E86
:101A400090E7894C8B49204608F006FB00F10D0514
:101A5000894908F019FBFEF7BBFF02462946A4F2AC
:101A6000B23008F0E5F9012384F8CA397AE77C4BF3
:101A7000012283F81C2E75E7794B012283F81C2E76
:101A800070E7774B012283F81C2E6BE7744B012221
:101A900083F81C2E66E7724B012283F81C2E61E747
:101AA0006F4B012283F81C2E5CE76D4B012283F8FB
:101AB0001C2E57E76A4B012283F81C2E6F4A93783D
:101AC00043F0800393704DE7654B012283F81C2E91
:101AD00048E7634B012283F81C2E43E7604B012249
:101AE00083F81C2E3EE75E4B012283F81C2E39E75B
:101AF0005B4B012283F81C2E34E7594B012283F8FB
:101B00001C2E2FE7584E5E49304608F0A5FA0446D1
:101B10005C4D2846FEF75CFF02460021284608F08F
:101B200095F908345849204608F0AEFAFEF750FF00
:101B300002462146284608F07BF9FFF731FC0123D5
:101B400086F8CA390EE7464B012283F81C2E09E7B6
:101B5000434B012283F81C2E04E7414B012283F8FA
:101B60001C2EFFE63E4B012283F81C2EFAE63C4B6E
:101B7000012283F81C2EF5E6394B012283F81C2E36
:101B8000F0E63A21384808F052FA0379302B7FF416
:101B9000E9AE334B012283F81C2EE3E63A213248AA
:101BA00008F045FA2C2108F042FA4378302B0BD08C
:101BB0002B4B1D2283F83F2E002283F81C2E334B23
:101BC000002283F8DD26CDE6314801F033FC2F4CAE
:101BD000002384F8DD3622481D2280F83F2E80F84D
:101BE0001C3E00F24F4008F0CAF8C4F8E006E6E7F1
:101BF0003A211D4808F01BFA054698B1184C2046BA
:101C0000FEF7E6FE02460021204608F01FF92149B2
:101C1000284608F039FAFEF7DBFE02462946204640
:101C200008F006F9194B5B68012B09D0002B7FF4F3
:101C300099AE01230A4A82F81C3E144A536091E689
:101C4000124B1B68012B27D0054B0A2283F83F2E2D
:101C5000062283F83E2E024B002283F81C2E81E6DA
:101C6000D03100205423002022360020F8B500088F
:101C700000B6000804B6000860B50008A44B0020B8
:101C800010B6000884050020B0B40008EC1A00204B
:101C90004043002064B50008CA4801F0F9FB012860
:101CA000D2D1FFF7C3FCC84B282283F83F2E08226D
:101CB00083F83E2EC54B002283F8DC26CBE7C24BCF
:101CC000012283F81C2E4DE6BF4B012283F81C2E07
:101CD00048E6BD4B012283F81C2E43E6BA4C05238F
:101CE00084F83E3E202384F83F3E40F6C412002193
:101CF00004F2524008F0AAF8002384F81C3E31E6B2
:101D0000B14B012283F81C2E2CE6B149B14808F0F2
:101D1000A3F90546002871D0AF4C2046FEF758FEC7
:101D200002460021204608F091F80435AB492846C8
:101D300008F0AAF9FEF74CFE02462946204608F0B4
:101D400077F82046FEF744FEA04BC3F8E406204691
:101D500008F015F89C4AC2F8300E4EF648629042E0
:101D600013D80122994BC3F8CC264FF480719C48BC
:101D700004F0B2F8944BD3F8300E10B1FFF7AAFB81
:101D800010E00620FFF77CFC0CE08F4C002384F869
:101D90001C3E0720FFF774FC032384F83E3E1D23FE
:101DA00084F83F3E884B012283F81C2EDAE54FF47D
:101DB00080718B4804F0AAF84FF47A7002F09AFC14
:101DC0000134E4B2022CF2D900224FF4807184482D
:101DD00004F082F80720FFF753FC00247B4B1C60C3
:101DE000804BDC71FFF7B4FA774B83F81C4E03226B
:101DF00083F83E2E1D2283F83F2EB3E50024E1E751
:101E0000724BD3F8CC36012B40F0C3806F4BD3F824
:101E10002C36002B52D14FF4FA627349734808F004
:101E200007F86A4BD3F8C8369BBB02F08DF902F075
:101E30007BFA0146002002F023FA012812D1012189
:101E40006A4802F089FA614AC2F8E80601280FD010
:101E50000A20FFF715FCFFF71DFC5B4B002283F8FF
:101E60001C2E7FE50820FFF70BFCFFF713FCE6E7CD
:101E700013460122C3F8C826534CD4F8300EFFF79E
:101E800029FB40F6C412002104F2524007F0DEFFA5
:101E9000E3E70021554802F05FFA4C4AC2F8E80631
:101EA000012805D00A20FFF7EBFBFFF7F3FBD4E78F
:101EB000454BD3F8300EFFF70DFBCEE7012B05D0D5
:101EC0000820FFF7DDFBFFF7E5FB4BE5414E4849F6
:101ED000304608F0C1F80A2108F0A9F80546434C3D
:101EE0004FF4FA620021204607F0B0FFD6F8DE2951
:101EF000691C204607F09CFF0021204602F02CFAC6
:101F0000324BC3F8E80602F00FFA02F05BFA002841
:101F10003DD12E4B0022C3F82026C3F8CC26D3F89F
:101F2000C836012B16D00020284B18602D4B0222FA
:101F3000DA71FFF7A5FB2F4B01221A70224B032207
:101F400083F83E2E1D2283F83F2E204B0122C3F83A
:101F5000C82607E51D4BC3F8C826E4E74FF4807197
:101F60001F4803F0D3FF4FF47A7002F0C3FB013433
:101F7000E4B2032CF2D900224FF48071184803F028
:101F8000ABFF0920FFF77CFBFFF784FBDDE70024B4
:101F9000EFE70820FFF774FBFFF77CFBE2E40A4B56
:101FA000012283F81C2EDDE4074B012283F81C2E4E
:101FB000D8E440F6C412002103F2524007F046FF75
:101FC000E7E400BF40430020D0310020EC1A00209D
:101FD00018B60008223600205C11002064B5000805
:101FE00000040048A44B0020353600206C06002079
:101FF00020B600083C2300201E480024C0F8384EBC
:10200000012380F83C3E40F6C412214600F25240C3
:1020100007F01CFF184B1C60FFF75EBB174B01223B
:1020200083F8EC2603E4134C012384F83D3E0021A1
:1020300084F83C1E40F6C41204F2524007F006FF3A
:1020400044F62063C4F8203E94F83F3E1E2B7FF4F4
:10205000F0AB1D2284F83F2E094A92F8BB34013BB5
:10206000DBB282F8BB34002B7FF4E3ABFEF76EFEED
:10207000FFF7DFBBD031002054230020EC1A0020F2
:1020800054000020AB4BD3F8203E002B40F0518190
:1020900010B5ADF58B5DA74B93F83E3EDBB2092B37
:1020A00003D9A44B002283F83E2EA24B93F83E3E68
:1020B000DBB2092B00F23A81DFE813F00A00450099
:1020C000CA00D7008E00AC007C0020012301300143
:1020D000984B93F8403E6BB1012B19D0022B28D0BE
:1020E000944B93F8403E022B70D9924B002283F818
:1020F000402E6BE001224FF400518F4803F0ECFEBC
:102100008C4B8E4AC3F8202E012283F8402EE7E73D
:1021100000224FF40051884803F0DEFE854B884AC8
:10212000C3F8202E012283F83E2E022283F8402E8F
:10213000D6E7804B93F83E3E002BD1D17D4B002259
:1021400083F8402ECCE77B4B93F83D3EDBB2052B6A
:1021500011D0784B93F83F3E1D2B1ED1794B93F84D
:10216000EC36012B0AD0734B072283F83F2E022254
:1021700083F83E2E2AE0FEF7E9FD27E06D4B0722AB
:1021800083F83F2E022283F83E2E6E4B012283F805
:10219000ED26002283F8EC2618E0664C4FF48B52B3
:1021A00004F11001684607F043FE94E80F00FFF7C2
:1021B00089FA0BE05F4C4FF48B5204F11001684632
:1021C00007F036FE94E80F00FFF77CFA5E4B5F4A9B
:1021D0001A600DF58B5D10BD5A4B93F8ED36012B4F
:1021E0000BD0544B072283F83F2E022283F83E2E59
:1021F00049F64042C3F8202EE8E74E4C4FF48B528C
:1022000004F11001684607F013FE94E80F00FFF791
:1022100059FADBE74B4B93F80236012B0BD0454BB9
:10222000072283F83F2E022283F83E2E49F64042D1
:10223000C3F8202ECAE73F4C4FF48B5204F1100133
:10224000684607F0F5FD94E80F00FFF73BFABDE79D
:10225000384C4FF48B5204F11001684607F0E8FD4A
:1022600094E80F00FFF72EFAB0E7394801F010F9B3
:1022700000283BD1364A5368023352F82330ABB3BF
:10228000304B93F8DD3623B92A4A92F83F2E1D2AA7
:1022900019D023B9274A92F83F2E1D2A1AD0012BB4
:1022A00004D1244B93F83F3E1E2B1AD0214C4FF4FF
:1022B0008B5204F11001684607F0BAFD94E80F0054
:1022C000FFF700FA82E7FEF753FE1E4B012283F868
:1022D000DD267BE7FEF74CFE1A4B012283F8DD2654
:1022E00074E7184B002283F8DD266FE7114B0722B5
:1022F00083F83F2E022283F83E2E67E7FEF726FD85
:1023000064E70C4C4FF48B5204F11001684607F05F
:102310008FFD94E80F00FFF7D5F957E7054B03222F
:1023200083F83E2E1D2283F83F2E4FE7FEF70EFD69
:102330004CE77047D031002000080048400D0300F2
:1023400080380100EC1A0020CC2F002080EE3600EF
:102350004043002008B51248124B0360124B436003
:10236000002383600122C260036143618361C36112
:10237000036203F049FE50B90021094804F00CFA49
:1023800040B90021064804F055FA30B908BD00F004
:10239000D9F8F1E700F0D6F8F3E700F0D3F8F5E765
:1023A00070430020005400405D3E30202DE9F04194
:1023B000A0B0044600211B911C911D911E911F91FC
:1023C000602203A807F042FD2268294B9A4202D0FE
:1023D00020B0BDE8F0814023039300230F9303A8AE
:1023E00005F0CAFB00283FD1224CE36C43F0020306
:1023F000E364E36C03F002030193019B40231B930E
:102400004FF01208CDF8708000251D951E95042709
:102410001F97194E1BA9304603F05AFB80231B93CC
:10242000CDF870801D9503231E931F971BA930467E
:1024300003F04EFBA36D43F40013A365A36D03F4F7
:1024400000130293029B2A4605211F2002F0CAFFB7
:102450001F2003F00DF82A460521202002F0C2FFBC
:10246000202003F005F8B3E700F06CF8BCE700BFEC
:1024700000540040001002400004004808B508481D
:10248000084B03600623436040F6FF73C36083601C
:1024900004F01AFA00B908BD00F054F8FBE700BFD9
:1024A000BC4300200030004008B50B480B4B0360D4
:1024B0000023436083604FF6FF72426103624FF472
:1024C000800242628362C362036304F05DFA00B972
:1024D00008BD00F037F8FBE7CC430020007C00404B
:1024E00010B59AB004466022002102A807F0AEFCA5
:1024F0002268124B9A4201D01AB010BD4FF40073FB
:1025000002934FF48023119302A805F035FB90B994
:102510000B4B9A6D42F000429A659B6D03F00043AD
:102520000193019B00220121412002F05BFF412029
:1025300002F09EFFE0E700F005F8E9E7007C0040CC
:102540000010024072B6FEE700B597B044220021A9
:1025500005A807F07BFC00230093019302930393EB
:1025600004934FF4007004F0E3FB38BB0A23059397
:102570004FF4807308931023099301220A920223D7
:102580000F93109311920C2212920722139214931C
:102590000423159305A804F0C3FC88B90F23009306
:1025A00003230193002302930393049302216846BB
:1025B00005F0C8F830B917B05DF804FBFFF7C2FFAB
:1025C000FFF7C0FFFFF7BEFF00B599B04022002122
:1025D00008A807F03BFC4FF4882300934FF080538A
:1025E00015934FF08063149302230193012202920A
:1025F00008220392072204920422059206934FF0C8
:1026000088730793684605F0B7FA10B919B05DF8FA
:1026100004FBFFF797FF000008B502F03FF8FFF753
:1026200093FFFFF7D1FFFEF7FDFAFFF793FEFFF7E9
:1026300025FFFFF739FF00F06BFF01F071F801F0A3
:10264000E7F901F02DFA00F031FFFEF791FA334877
:1026500006F044FD324A52E8003F43F0200342E8CE
:1026600000310029F6D12F4B2F4A1A602F4B002240
:102670001A602F4B2F4A1A602F4B1B686BB301F067
:102680003BFB0220FEF7FCFF2B4B00221A6024E0EC
:1026900000F026FA0146294800F0A6FE214B284A00
:1026A0001A6020E0FEF752FB21E0264C00224FF496
:1026B0008071204603F010FC4FF40071204603F0B7
:1026C00025FC214B44F620621A6016E01F4B1B7854
:1026D000012B1FD01E4804F051F901F08FFC114B63
:1026E0001B68002BD4D01B4B1B68002BDAD0FFF7E4
:1026F000C9FC154B1B68002BD7D00D4B1B6843B191
:10270000154B1B78002BE1D00C4800F0C1FE0128CE
:10271000DCD1FEE701F052FADCE700BFCC44002038
:1027200000380140C42F0020804F1200E82F002005
:10273000F82F0020005125022C15002040430020D6
:10274000C027090000040048D42F0020C821002021
:10275000BC430020CC2F00203C2300207047000009
:102760002DE9F04385B005460C4600230193029302
:10277000ADF80C30684B03EBC003D3E900231343DF
:1027800000F0A1800846FEF723F9644B1B88235212
:102790002046FEF71DF92218614B19889B782152BB
:1027A0009370102201A95F4B53F8250007F02EFB10
:1027B00001A9204607F02CFC2046FEF709F95A4BE8
:1027C0001E882652DFF8509109EBC508574F98F83C
:1027D0000720394601A807F0FBFB01A9204607F0B6
:1027E00017FC2046FEF7F4F8265298F806203946E2
:1027F00001A807F0EDFB01A9204607F009FC2046DF
:10280000FEF7E6F8265298F80520394601A807F0A9
:10281000DFFB01A9204607F0FBFB2046FEF7D8F8B6
:10282000265298F80420394601A807F0D1FB01A9E7
:10283000204607F0EDFB2046FEF7CAF8265259F86D
:102840003520120E394601A807F0C2FB01A9204627
:1028500007F0DEFB2046FEF7BBF8265259F835207C
:10286000C2F30742394601A807F0B2FB01A920468E
:1028700007F0CEFB2046FEF7ABF8265259F835207C
:10288000C2F30722394601A807F0A2FB01A920469E
:1028900007F0BEFB2046FEF79BF8265219F83520BC
:1028A000394601A807F094FB01A9204607F0B0FBC8
:1028B0002046FEF78DF8265200220023C8E90023A7
:1028C00005B0BDE8F0830846FEF782F8134B1B887D
:1028D00023522046FEF77CF82218114B19889B786A
:1028E00021529370102201A90E4B53F8250007F0D6
:1028F0008DFA01A9204607F08BFB2046FEF768F809
:10290000074626180A4D0FCDE0517160B260F360A2
:102910002B883382D4E700BFF026002084B600085D
:1029200088B60008F8150020A4B600088CB6000888
:1029300094B6000830B585B0054600230193029394
:10294000ADF80C3001240D4B1B78A34213D3102299
:1029500001A90B4B53F8240007F058FA01A92846A7
:1029600007F056FB2846FEF733F8064B1B882B5220
:102970000134E4B2E7E705B030BD00BFE81900203C
:10298000F8150020A4B60008F0B585B0054600266D
:10299000009601960296CDF80B6001F08BFD4C4F2E
:1029A000F87805F0EEFD4B4CA4FB0023DB08303338
:1029B0008DF80030F87805F0E4FDA4FB0023DB0877
:1029C00003EB8303A0EB430030308DF801007878EF
:1029D00005F0D7FDA4FB0023DB0830338DF802306F
:1029E000787805F0CEFDA4FB0023DB0803EB83031E
:1029F000A0EB430030308DF80300B87805F0C1FD3E
:102A0000A4FB0023DB0830338DF80430B87805F0E0
:102A1000B8FDA4FB0023DB0803EB8303A0EB43001A
:102A200030308DF8050020238DF806302A4F387895
:102A300005F0A7FDA4FB0023DB0830338DF8073039
:102A4000387805F09EFDA4FB0023DB0803EB83032D
:102A5000A0EB430030308DF80800787805F091FD48
:102A6000A4FB0023DB0830338DF80930787805F0BB
:102A700088FDA4FB0023DB0803EB8303A0EB4300EA
:102A800030308DF80A00B87805F07BFDA4FB0023F8
:102A9000DB0830338DF80B30B87805F072FDA4FBFD
:102AA0000034E40804EB8404A0EB440430348DF8D3
:102AB0000C408DF80D606946284607F0A9FA2846B3
:102AC000FDF786FF054B1B882B5205B0F0BD00BFFC
:102AD000902F0020CDCCCCCC7C2F0020A4B60008B9
:102AE000F8B540F2DC5007F093F904466E496F48A0
:102AF00007F0B2FA6E4B1860002800F0BC806D4DF4
:102B00000021C5F8301198359622284607F09EF925
:102B1000664E3046FDF75CFF02463146284607F018
:102B200087F9002C00F0A58040F2DC5200212046FD
:102B300007F08CF9604B1B8823802046FDF748FF87
:102B40005E4B1E8826525E49204607F061FA2046F9
:102B5000FDF73EFF26522046FDF73AFF8446271830
:102B6000584D0FCD44F80C007960BA60FB6003CD7E
:102B7000386179612046FDF72BFF26522046FFF78A
:102B800003FF2046FDF724FF034621184E4A106834
:102B9000E05013790B712046FDF71AFF26522046AC
:102BA000FDF716FF494B1B8823522046FDF710FF07
:102BB0002652404B93F89830002B61D04449204670
:102BC00007F026FA2046FDF703FF3C4B1B882352F3
:102BD00021460120FFF7C4FD21460220FFF7C0FD7A
:102BE00021460320FFF7BCFD21460420FFF7B8FD76
:102BF00021460520FFF7B4FD21460620FFF7B0FD72
:102C000021460720FFF7ACFD284B93F89630002BA8
:102C10003CD03049204607F0FBF92046FDF7D8FEAE
:102C2000264B1B882352234BD3F83031012B33D052
:102C30002046FDF7CDFE284B1B8823522046FDF78A
:102C4000C7FE1E4B1B8823522046FDF7C1FE234BB7
:102C50001B882352164B0122DA601B7C4BB1144BAC
:102C600000221A742046FDF7B3FE80B203383123E8
:102C700023542046F8BD0F4B0122C3F8302150E702
:102C80000B4B5968204607F0C3F99BE7084B99683E
:102C9000204607F0BDF9C0E72046FDF799FE104B2E
:102CA0001B882352CAE700BFA8B60008D031002015
:102CB000341500200822002078B50008A4B60008CA
:102CC00020000020B0B60008C8B60008D0B6000842
:102CD000A022002066320020F4B50008C0B500082C
:102CE00048B60008B5EEC00AF1EE10FA49DD10B49E
:102CF00083B0FCEEC07ACDED017A9DF80420FDEEA4
:102D0000C07AF8EEE77A30EE670ADFED217A20EE3E
:102D1000270ABCEEC00A10EE103A9BB20A2A24D948
:102D20001C49A1FB0201C90801F130041A480475CD
:102D300001EB8101A2EB410230324275164A2E218D
:102D400091750A2B17D9134AA2FB0312D20802F17C
:102D500030001149C87502EB8202A3EB4203303305
:102D60000B7603B05DF8044B70470B4930200875B3
:102D700002444A75E2E7084A3021D1750B441376C4
:102D8000EFE7054B054A92E8030058611976704752
:102D90000000C842CDCCCCCC34150020D4B60008FD
:102DA0002DE9F04186B004460D46002301930293BD
:102DB000039304930593632900F23882DFE811F04E
:102DC0006400360286009300AF00C6002001560161
:102DD0007A019601B201CE01EA01360236023602CC
:102DE0003602360236023602360236023602360223
:102DF0003602360236023602360236023602360213
:102E00003602360236023602360236023602360202
:102E100036023602360236023602360236023602F2
:102E200036023602360236023602360236023602E2
:102E300036023602360236023602360236023602D2
:102E400036023602360236023602360236023602C2
:102E500036023602360236023602360236023602B2
:102E600036023602360236023602360236023602A2
:102E70003602360236023602360236023602360292
:102E80003602360236022602FDF7A2FD2218CF4B8B
:102E900019889B78215293702046FDF799FDCC4B01
:102EA0001E882652102201A9284606F0AFFF01A96C
:102EB000204607F0ADF82046FDF78AFD2652C54BA7
:102EC000012283F8342106B0BDE8F081FDF780FDD2
:102ED00005462618C04B07CB60517160B260204692
:102EE000FFF728FDEFE7FDF773FD2218BB4B1988AC
:102EF0009B78215293702046FDF76AFDB44B1E88E3
:102F00002652102201A9284606F080FF01A920467A
:102F100007F07EF82046FDF75BFD2652D3E7FDF76C
:102F200057FD2218AE4B19889B782152937020468A
:102F3000FDF74EFDA64B1D882552AA49204607F0F5
:102F400067F82046FDF744FD2552BCE7FDF740FD3C
:102F50002218A24B19889B78215293702046FDF7C6
:102F600037FD9B4B1F882752102201A9284606F0E7
:102F70004DFF01A9204607F04BF82046FDF728FD3C
:102F800027522046FDF724FD064604EB000C964D23
:102F90000FCDA051CCF80410CCF80820CCF80C30A0
:102FA000924B93ED000AFFF79DFEDFF85C824146ED
:102FB000204607F02DF82046FDF70AFD275220464F
:102FC000FDF706FD84462618894D0FCD44F80C0008
:102FD0007160B260F36003CD306171612A88AB78B3
:102FE0003283B376834B93ED000AFFF77BFE4146B5
:102FF000204607F00DF82046FDF7EAFC275262E76D
:10300000FDF7E6FC2218754B19889B7821529370C6
:103010002046FDF7DDFC6E4B1B882352102201A9D0
:10302000284606F0F3FE01A9204606F0F1FF2046EF
:10303000FDF7CEFC074626186F4D0FCDE0517160AD
:10304000B260F36028683061AA88AB79B282B37548
:103050006A49204606F0DCFF2046FDF7B9FC03462E
:103060002518674A03CAE05069602CE7FDF7B0FCF9
:1030700022185A4B19889B78215293702046FDF7ED
:10308000A7FC534B1E882652102201A9284606F0A1
:10309000BDFE01A9204606F0BBFF2046FDF798FCC7
:1030A00026525849204606F0B3FF2046FDF790FC13
:1030B000265208E7FDF78CFC2218484B19889B78AC
:1030C000215293702046FDF783FC414B1E88265207
:1030D000102201A9284606F099FE01A9204606F013
:1030E00097FF2046FDF774FC2652ECE6FDF770FCD6
:1030F00022183A4B19889B78215293702046FDF78D
:1031000067FC334B1E882652102201A9284606F080
:103110007DFE01A9204606F07BFF2046FDF758FC06
:103120002652D0E6FDF754FC22182C4B19889B78C8
:10313000215293702046FDF74BFC254B1E882652EA
:10314000102201A9284606F061FE01A9204606F0DA
:103150005FFF2046FDF73CFC2652B4E6FDF738FC45
:1031600022181E4B19889B78215293702046FDF738
:103170002FFC174B1E882652102201A9284606F064
:1031800045FE01A9204606F043FF2046FDF720FC3E
:10319000265298E6FDF71CFC2218104B19889B78E4
:1031A000215293702046FDF713FC094B1E882652CE
:1031B000102201A9284606F029FE01A9204606F0A2
:1031C00027FF2046FDF704FC26527CE6DCB600080B
:1031D000A4B6000808220020E0B60008ECB60008FB
:1031E000F0B6000850210020F4B600087823002033
:1031F00004B700087423002020B700085C110020E9
:1032000038B700081F36002048150020FDF7E0FB06
:10321000034621180D4A1068E05013790B712046BF
:10322000FDF7D6FB0A4B1B8823524CE6FDF7D0FB7B
:1032300003462118054A1068E05013790B712046A7
:10324000FDF7C6FB024B1B8823523CE640B7000843
:10325000A4B600082DE9F041804640F2DC5006F0AB
:10326000D7FD0446002870D040F2DC52002106F061
:10327000EDFD4E4B1B8823802046FDF7A9FB4C4BF0
:103280001E8826524B49204606F0C2FE2046FDF716
:103290009FFB26522046FDF79BFB02462518464B16
:1032A00003CBA05069601A889B782A81AB722046B4
:1032B000FDF78EFB26522046FDF78AFB8446271831
:1032C0003E4D0FCD44F80C007960BA60FB6003CD31
:1032D000386179612046FDF77BFB26522046FFF7D7
:1032E00053FB2046FDF774FB03462118344A10684F
:1032F000E05013790B712046FDF76AFB26522046F9
:10330000FDF766FB2F4B1B8823522046FDF760FB21
:10331000265241462046FFF743FD2B4B1B78012BDD
:1033200016D02A4B1B78012B20D02046FDF750FBEE
:10333000274B1B882352274B0122DA60224B1B7834
:1033400093422ED0244B00221A602046BDE8F08123
:103350002046FDF73DFB05462618204B07CB605164
:103360007160B2602046FFF7E5FADAE72046FDF724
:103370002FFB22181A4B19889B78215293702046F4
:10338000FDF726FB0A4B1D8825521649204606F0FC
:103390003FFE2046FDF71CFB25520C4B00221A7005
:1033A000C3E7094B00221A70CCE700BF78B50008CC
:1033B000A4B6000820000020C8B50008B0B6000878
:1033C000C8B60008D0B6000830150020042200203E
:1033D000C0B50008341500202C150020E0B6000808
:1033E000F0B600085021002038B504460D460268AA
:1033F00043689A4202DC002303604360236802337F
:1034000054F8230030B106F00BFD2368023300228C
:1034100044F8232023689A1C44F822500133236087
:10342000092B04DD024B01221A600923236038BDF9
:103430004823002010B5044643680BB9026812B156
:103440002268934214D1023354F8230030B106F0BD
:10345000E7FC63680233002244F823206368226893
:10346000934214DB9BB192B10023236063600EE0B2
:10347000023354F8230006F0D3FC63689A1C002141
:1034800044F8221001336360092B00DD616010BD38
:1034900043689A1C50F822200AB100207047006847
:1034A000834214BF002001207047000008B5054882
:1034B000054B036004F032FE00B908BDFFF742F887
:1034C000FBE700BF044400200008065002680F4BD1
:1034D0009A4200D0704700B583B003F17043A3F562
:1034E0007E33DA6C42F48022DA64DB6C03F48023EE
:1034F0000193019B00221146502001F073FF5020E0
:1035000001F0B6FF03B05DF804FB00BF00080650F1
:1035100010B592B000240D940E940F941094119451
:103520000C942C22214601A806F090FC2A482B4B33
:10353000036044607F238360FF23C36004614461B0
:103540008461C46104F06AFF002839D100238DF83A
:1035500034308DF835308DF83630109311930122C8
:103560000DA91D4805F016F868BB01228DF8302022
:103570008DF831208DF8322000238DF833300CA9DE
:10358000154805F029F908BB00238DF804303022D6
:103590008DF805208DF80630029304930593104AA8
:1035A00006920893099301228DF828204FF4807326
:1035B0000B9301A9084805F0E5F950B912B010BD08
:1035C000FEF7C0FFC2E7FEF7BDFFCEE7FEF7BAFF8A
:1035D000DAE7FEF7B7FFF1E73044002000280040AB
:1035E0008000808010B598B00446602200216846B3
:1035F00006F02CFC2268114B9A4201D018B010BD85
:103600004FF4003300934FF400731793684604F0AF
:10361000B3FA78B90A4AD2F8903043F40043C2F8BA
:10362000903000221146292001F0DCFE292001F013
:103630001FFFE3E7FEF786FFECE700BF002800402E
:103640000010024038B50546184B0024DC719C710F
:103650005C711C71DC709C705C701C70144B196880
:10366000144801F061FC144B1C70144B1C605C602E
:10367000134B1B6813B9124B01221A60114B1B68C4
:1036800013B1104B00221A600F4B01221A60002365
:103690000E4A13700E4A13700E4B0F4A1A604FF405
:1036A0008071284604F0B4FD38BD00BFF84B0020FF
:1036B000984B0020D8300020F42E0020884B0020AA
:1036C00098280020F02E002094280020E6190020E1
:1036D0008B280020F02F0020400D030010B40C4B6D
:1036E0009A8CD2B20B490A700B4BD3F8380E441C9B
:1036F000C3F8384E034483F85224084B42F2107248
:103700001A604B680BB901224A605DF8044B7047A0
:103710000038014050230020D0310020C02F00206D
:1037200008B51048104B03604FF4827343600023C8
:1037300083604FF44072C260036143614FF40072D2
:103740008261C3610362436283620722C2620363D0
:103750000823436305F0D4FA00B908BDFEF7F2FE72
:10376000FBE700BF684400200038004010B588B077
:103770000023039304930593069307930268184B61
:103780009A4201D008B010BD03F5EC339A6D42F4B3
:1037900080429A659A6D02F480420192019ADA6C35
:1037A00042F00202DA64DB6C03F002030293029B34
:1037B0004FF460430393022304930024059406947A
:1037C0000523079303A9074802F082F92246062140
:1037D000242001F007FE242001F04AFED2E700BFBA
:1037E000003800400004004882B00A4B1A6E42F0D4
:1037F00001021A661A6E02F001020092009A9A6D96
:1038000042F080529A659B6D03F080530193019BB7
:1038100002B0704700100240FEE7FEE7FEE7FEE759
:10382000FEE770477047704708B500F047FF08BDD6
:1038300008B5024801F08EFE08BD00BF90300020A0
:1038400008B5024800F06CFF08BD00BF2C30002016
:1038500008B5024801F082FC08BD00BFD830002046
:1038600008B5024801F07AFC08BD00BFD83000203E
:1038700008B5024801F072FC08BD00BFD830002036
:1038800008B5024801F06AFC08BD00BFD83000202E
:1038900008B5024802F074FC08BD00BF7043002068
:1038A00008B5024802F035FF08BD00BF7043002094
:1038B00008B5024805F076FB08BD00BF684400204B
:1038C00008B5044BDB6913F0200F01D0FFF706FFAA
:1038D00008BD00BF0038014008B5024804F00CFDE7
:1038E00008BD00BF3044002008B5024805F04FFC79
:1038F00008BD00BFCC44002008B5024803F0A5F97C
:1039000008BD00BFCC43002008B5024804F04EFCBF
:1039100008BD00BF044400200120704708B506F030
:1039200033FA162303604FF0FF3008BD08B54FF09F
:10393000FF31FFF7F3FFFEE770B50C461646002592
:10394000B54207DAAFF30080214601F8010B0135DB
:103950000C46F5E7304670BD70B50C46164600259E
:10396000B54205DA14F8010BAFF300800135F7E733
:10397000304670BD08B503460B4A126842B10A4A88
:10398000106803446A46934206D8074A136008BD8C
:10399000054A06491160F2E706F0F6F90C230360C8
:1039A0004FF0FF30F3E700BF58230020184C0020F1
:1039B0004FF0FF3070474FF400534B6000207047CA
:1039C00001207047002070470F4B4FF008229A608B
:1039D000D3F8882042F47002C3F888200B4B1A6891
:1039E00042F001021A60002199601A6822F0A85280
:1039F00022F410221A604FF48052DA601A6822F41E
:103A000080221A609961704700ED00E000100240CA
:103A100000B585B000230193029303930E480F4A2B
:103A200002604360836040F67C12C260836105F0EF
:103A3000B3FC50B900230193039301A9064805F094
:103A400025FD28B905B05DF804FBFEF77BFDF1E725
:103A5000FEF778FDF6E700BFCC44002000140040DC
:103A600002680E4B9A4200D0704700B583B003F550
:103A7000FE339A6D42F020029A659B6D03F020039D
:103A80000193019B00221146372001F0ABFC372047
:103A900001F0EEFC03B05DF804FB00BF0014004031
:103AA00010B5A8B000212191229123912491259154
:103AB000269127911B911C911D911E911F91209180
:103AC0005C2204A806F0C2F90123039303A804F0C2
:103AD00053F8002864D1354B1A6E42F480421A66BE
:103AE0001A6E02F480420292029ADA6C42F00102EB
:103AF000DA64DB6C03F001030193019B4FF4C063B4
:103B00001B9302231C9300231D931E931F930723D3
:103B100020931BA94FF0904005F064FD244BDA6818
:103B2000C2F30222C2F10703042B28BF0423194663
:103B3000131D062B37D9033A4FF0FF338B40DB437D
:103B400003F0070393401B01DBB21A4A82F82533C6
:103B5000202353604FF41653219300232293239381
:103B600024930C22259226932793134C21A92046B7
:103B700006F006F8A36843F48053A360A36823F417
:103B80000053A360636823F490436360A36823F049
:103B90002A03A360236843F00103236028B010BD0B
:103BA000FEF7D0FC97E70022C6E700BF00100240F6
:103BB00000ED00E000E100E00038014070B5A6B083
:103BC000302300939222002101A806F03FF93A4CDD
:103BD00021463A4806F058FA2146002006F054FAE9
:103BE0002146002006F050FA044606F0C8F80228E4
:103BF0003ED0204606F0C3F880B2032855D00728EF
:103C000050D12D4D2946002006F03EFA044696225A
:103C10000021684606F01AF92946204606F034FAD3
:103C2000FCF7D6FE02462146684606F001F9244913
:103C3000684606F011FA04462249684606F00CFA76
:103C4000051BECB1E0B1204E64220021304606F0A5
:103C5000FDF82A1D2146304606F0EAF80420FDF75B
:103C60000FFD1A4B01221A60194B00221A701CE03A
:103C70001149002006F008FA06F081F880B2BCE78E
:103C8000114C64220021204606F0E0F86846FCF75B
:103C90009FFE02466946204606F0CAF80C4B0022F9
:103CA0001A7002E00A4B00221A7096220021034883
:103CB00006F0CCF826B070BDA4B60008D4050020EC
:103CC000BCB70008C4B7000850210020EC1A00203F
:103CD000C82100200268064B9A4200D07047054B6D
:103CE0001B6B002BFAD1034B01221A63F6E700BFCE
:103CF000000004506023002010B55F4B5F4A1A603B
:103D000000221A76012159769976D9761A77597751
:103D10009A60DA604FF440221A614FF480125A61BF
:103D2000574B1B68642B00F0848061D9B3F5FA7F90
:103D300077D06ED9B3F57A7F40F088804E4B03225E
:103D40005A604D4800F024FE002800F083800121D5
:103D50000846FCF73DFF4B4900234B618B61012274
:103D6000CA610B604B608B60CB600B610A620E23F3
:103D70004B62414800F07EFF002870D001210220F4
:103D8000FCF726FF3C4801F04DF800286CD10221D9
:103D9000394801F0B5F9002869D13B4B40F2213296
:103DA0001A6001225A600024DC600421996002211B
:103DB00019611A75354B07215980162119800D217B
:103DC000998047F23151D98031490B7843F0800313
:103DD0000B70304B1A704FF4487221462E4806F093
:103DE00035F84FF4C86221462C4806F02FF810BD74
:103DF000322B22D005D9532B28D11F4B24225A60B5
:103E00009FE70A2B1DD0142B20D11B4B96225A6002
:103E100097E77D2B09D0FA2B18D1174B0C225A604B
:103E20008FE7154B06225A608BE7134B18225A6016
:103E300087E7114B1E225A6083E70F4B3C225A60E2
:103E40007FE70D4B4FF496725A607AE70A4B0622D1
:103E50005A6076E700210120FCF7BAFE7BE70021DB
:103E60000220FCF7B5FE8DE7FEF76CFB8FE7012122
:103E70000220FCF7ADFE90E7D8300020006400403F
:103E8000F815002018450020AC4B0020804B002086
:103E9000A44B0020884B0020C41600204045002081
:103EA00010B504464FF480712A4802F02FF82A4BCF
:103EB0002A4A0021204601F06BF8E0B9284B4EF663
:103EC00060221A605B68274A02EB8302D2F8CC209A
:103ED000002A36D1214A9268042A0FD0CAB91F4A53
:103EE0001168204A02EB8302C2F8CC101C4A02EB94
:103EF000830291600DE0FEF725FBDFE7174A51686A
:103F0000184A02EB8302C2F8CC10154A02EB830276
:103F10009160114AD479144800EBC301CC719479B3
:103F20008C7154794C7114790C71D478CC7094786C
:103F30008C7054784C70127800F833200133084AA2
:103F40005360074B5B68C72B02D9054B00225A60B0
:103F500010BD00BF000400489C4B0020C44B002053
:103F6000A8230020F81500204045002008B5426A2B
:103F7000044BC3F82823044800F0B4FFFFF7BCFE4D
:103F800008BD00BFA8230020D830002070470000E3
:103F9000184BD3F82C3333B9164A0121C2F8301329
:103FA0000021C2F83413134AD2F83023012A03D077
:103FB000104BD3F8340370470F4A52F82320824243
:103FC0000DD001330B4AC2F82C33322BF0D11346FB
:103FD0000022C3F82C230222C3F83023E8E7054A65
:103FE000C2F834330223C2F830330023C2F82C3332
:103FF000DEE700BFA8230020F81500202DE9F84FC8
:104000004B4BD3F838234B4B03EB8203D3F8CC3024
:10401000002B7ED04649D1F83C1331B9444AC2F84E
:1040200040330123C2F83C3377E0012975D1404B7E
:10403000D3F83033022B64D13D4BD3F8440300282E
:104040004CD03D4B13F8326003EBC2035C78210483
:1040500041EA06619C7841EA0421DE7893F8048005
:104060005C79240444EA086893F806A048EA0A2820
:1040700093F807A048EA0A0441EA06052C4B03EB33
:10408000C003C3E9D24554EA050306D1284B03EB2C
:10409000C00000240025C0E9D2452749002301F8CB
:1040A000323001EBC2014B708B70CB700B714B71D6
:1040B0008B71CB711F4901EB8201C1F8CC301C49D7
:1040C000C1F844331A4B0021C3F83013C3F83C1332
:1040D000C3F840130132C3F838231EE0164B002109
:1040E00003F8321003EBC20359709970D97019713B
:1040F00059719971D9710F4B03EB8203C3F8CC103E
:10410000E0E70B4CD4F84003FFF742FFC4F8440348
:1041100003E00132064BC3F83823054BD3F838339C
:10412000C72B03D9024B0022C3F83823BDE8F88F10
:10413000A8230020F81500204045002008B50121E3
:104140000820FCF745FD08BD08B501F003FB044B52
:104150009A6942F040429A614CF2FA321A6108BD03
:10416000002002402DE9F843804611F0070518BFF2
:10417000012505EBD105022A0AD0032A73D1012BB0
:1041800043D03B4B1A69DA60FFF7DEFF002444E0BE
:10419000012B06D0364B1A69DA60FFF7D5FF0024F1
:1041A00008E0334B4FF00822DA60F6E70831304B75
:1041B000D9600134AC4221D208EBC406D6E9002311
:1041C0002B49C968002001F01BFB80B9284BD96836
:1041D000D1E90023D6E90067BB4208BFB242E5D06F
:1041E00001F0D0FA0B20FDF74BFA052039E001F081
:1041F000C9FA0A20FDF744FA042032E001F0C2FABD
:104200001B4BDA681A6100202BE0194B194ADA605F
:10421000BAE70833164AD3600134AC421BD208EB2C
:10422000C409D9E900231249C968002001F0E8FA5D
:1042300068B90F4BDB68D3E90067D9E900018F4209
:1042400008BF8642E5D001F09DFA052009E001F0A3
:1042500099FA042005E001F095FA054BDA681A6135
:104260000020BDE8F88301F08DFA0420F9E700BFD3
:10427000FC2E00200008010800F17840C00A7047B9
:1042800030B583B00023019302291DD003293FD10B
:104290002148FFF7F1FF05462048FFF7EDFF401BDF
:1042A0001F4C002363610123A361E5612062FFF7D6
:1042B0004BFF01A904F1140001F088FB20BB01F0C1
:1042C00061FA012003B030BD4FF00820FFF7D4FFA2
:1042D00005461448FFF7D0FF401B114C00236361D3
:1042E0000123A361E5612062FFF72EFF01A904F11C
:1042F000140001F06BFB18B901F044FA0120E1E76A
:1043000001F040FA0220DDE701F03CFA0220D9E793
:1043100001F038FA0220D5E70008010800F0010892
:10432000FC2E002000F000080A4B1B68582B0AD016
:10433000B3F1FF3F09D0592B09D07F2B01D00420C6
:104340007047022070470320704703207047022007
:10435000704700BF00F8010870B504460D46074BD2
:10436000D3F8306E064B1E60FFF7DEFF02462B4689
:1043700031462046FFF7F6FE012070BDD031002007
:10438000E021002010B582B0002301930C4C636241
:104390000123A36200F17840C00AE0622363FFF7C3
:1043A000D3FE01A904F1240001F010FB20B901F0B3
:1043B000E9F9012002B010BD01F0E4F90220F9E7AB
:1043C000FC2E002010B503285CD8DFE800F0023393
:1043D0001E462F48FFF7D6FF012812D1FFF7B4FE83
:1043E0007E2200232A49002001F00AFA7E2401F0EF
:1043F000C9F9274B1B68274A5363A34246D00120C3
:1044000010BD01F0BFF90120FAE72148FFF7BAFF1C
:1044100001280BD1FFF798FE582200231C490020E9
:1044200001F0EEF901F0AEF95824E0E701F0AAF945
:104430000120E5E71648FFF7A5FF012809D1FFF79E
:1044400083FE7F2200231249002001F0D9F97F2446
:10445000CDE701F097F90120D2E70D48FFF792FF71
:1044600001280BD1FFF770FE5922002308490020D4
:1044700001F0C6F901F086F95924B8E701F082F994
:104480000120BDE701F07EF90024B0E70020B7E786
:1044900000F80108FC2E0020054BA3FB0023DB08DD
:1044A00003EB8302A0EB420040EA0310704700BF19
:1044B000CDCCCCCC38B5074D074C012205F14801D5
:1044C000204604F057F9012205F15C01204604F072
:1044D0002FFA38BD342F0020304400200268544B9E
:1044E0009A4200D07047534B1B681BB1514A136866
:1044F000013B13604F4B5B681BB14E4A5368013B55
:1045000053604D4BD3F8203E2BB14B4AD2F8203E9E
:10451000013BC2F8203E484BD3F8343E2BB1464A0B
:10452000D2F8343E013BC2F8343E434BD3F82C3E24
:104530001BB1013B404AC2F82C3E3E4B9B681BB16D
:104540003C4A9368013B93603A4BDB681BB1394AA4
:10455000D368013BD360374B1B691BB1354A1369E4
:10456000013B1361354B1B681BB1344A1368013B97
:104570001360304B5B691BB12E4A5369013B536199
:104580002C4B9B691BB12B4A9369013B9361294BCF
:10459000DB691BB1274AD369013BD361254B1B6AF9
:1045A0001BB1244A136A013B1362224B5B6A1BB1A5
:1045B000204A536A013B53621E4B9B6A1BB11D4A42
:1045C000936A013B93621B4BDB6A13B1013B194AAF
:1045D000D362184B1B6B1BB1164A136B013B136361
:1045E000144B5B6B13B1013B124A5363144B1B68B2
:1045F00013B1013B124A13600E4B9B6B1BB10D4A6A
:10460000936B013B93630F4B1B6813B1013B0D4A46
:1046100013600D4B1B68002B7FF464AF054BDB6B05
:10462000002B3FF45FAF013B024AD3635AE700BF60
:1046300000140040BC2F0020D0310020341A00208C
:1046400084280020A8230020EC1A002070470000D6
:10465000104B1B780BB90120704710B504464FF47E
:104660007A70B0FBF3F30C4A1068B0FBF3F000F083
:1046700033FF68B90F2C01D901200AE0002221463E
:104680004FF0FF3000F0AEFE024B5C60002000E017
:10469000012010BD381A0020F415002010B50320A9
:1046A00000F082FE0F20FFF7D3FF10B10124204657
:1046B00010BD0446FFF798F8F9E70000064B1B7899
:1046C000064A11680B441360054B1B681BB1054A71
:1046D0001368013313607047381A0020004C002023
:1046E000AC2F0020B02F0020014B1868704700BF8E
:1046F000004C002038B50446FFF7F6FF0546B4F13C
:10470000FF3F02D0044B1B781C44FFF7EDFF401B1A
:10471000A042FAD338BD00BF381A00207047704756
:1047200070B5044603681D685E68944A934204D0DD
:1047300040F6C3019248FEF711F86369042B01D0DB
:10474000082B49D115F0020F10D016F0020F0DD032
:10475000636D13F0100F03D1636D43F40063636561
:10476000204600F013F9236802221A6015F0040FA6
:1047700002D016F0040F05D115F0080F40D016F046
:10478000080F3DD0636D13F0100F03D1636D43F438
:10479000007363652368DA6812F4406F2AD1DA681F
:1047A00012F4005F26D11A6812F0080F22D09A681E
:1047B00012F0040F16D15A6822F00C025A60636D91
:1047C00023F480736365636D13F4805F12D1636DAE
:1047D00043F0010363650DE040F6C4016848FDF74E
:1047E000BDFFAFE7636D43F010036365A36D43F056
:1047F0000103A3652046FFF76DFA23680C221A60B7
:1048000015F0200F02D016F0200F05D115F0400F43
:104810004CD016F0400F49D0636D13F0100F03D148
:10482000636D43F4005363652368DA6C12F0C00FC4
:104830002AD10121DA6812F4406F27D10120DA6809
:1048400071B312F0007F03D050B312F4005F27D190
:10485000196811F0400F23D012F4001F20D19A687C
:1048600012F0080F14D15A6822F060025A60636D8A
:1048700023F480536365636D13F4807F10D1636DFF
:1048800043F0010363650BE00021D3E70020D6E786
:10489000636D43F010036365A36D43F00103A365EB
:1048A000204600F06FF8236860221A6015F0800F30
:1048B00002D016F0800F2DD115F4807F02D016F4AF
:1048C000807F32D115F4007F02D016F4007F38D1FA
:1048D00015F0100F17D016F0100F14D0636B23B122
:1048E0002368DB6813F0010F0AD0636D43F4806323
:1048F0006365A36D43F00203A3652046FFF70FFF36
:10490000236810221A6015F4806F02D016F4806FAD
:1049100023D170BD636D43F4803363652046FFF798
:10492000FDFE236880221A60C6E7636D43F40033FE
:104930006365204600F028F823684FF480721A60FF
:10494000C0E7636D43F480236365204600F01DF8E3
:1049500023684FF400721A60BAE7636D43F4804332
:104960006365A36D43F00803A36523684FF4806279
:104970001A60204600F007F8CBE700BF00000450A3
:10498000CCB7000870477047704770477047000009
:10499000002800F06D8138B504460268AF4B9A429A
:1049A00004D040F21D11AE48FDF7D8FE237E012B46
:1049B00000F29680637E012B00F29880A37E012B8B
:1049C00000F29A80E37E012B00F29C80237F012B72
:1049D00000F29E80637F012B00F2A080A3684BB1A0
:1049E000B3F1804F06D0B3F1004F03D0B3F1404F85
:1049F00040F09A80E3684BB1B3F1807F06D0B3F109
:104A0000007F03D0B3F1407F40F09480236963B30B
:104A1000B3F5803F29D0B3F5003F26D0B3F5403F32
:104A200023D0B3F5802F20D0B3F5A02F1DD0B3F540
:104A3000C02F1AD0B3F5E02F17D0B3F5002F14D044
:104A4000B3F5102F11D0B3F5202F0ED0B3F5302FC2
:104A50000BD0B3F5402F08D0B3F5502F05D0B3F5E8
:104A6000602F02D0B3F5702F6AD16369A3B1B3F59B
:104A7000801F11D0B3F5001F0ED0B3F5401F0BD02F
:104A8000B3F5800F08D0B3F5A00F05D0B3F5C00F74
:104A900002D0B3F5E00F59D16368013BB3F5806FE5
:104AA0005AD294F82030002B5CD02268136843F06F
:104AB00001031360FFF718FE054623685A6812F0D9
:104AC000010F53D1FFF710FE401B0A28F5D9636A86
:104AD00043F400336362052384F82030012038BD9D
:104AE0004FF48F715E48FDF739FE63E740F21F1106
:104AF0005B48FDF733FE61E74FF490715848FDF7CE
:104B00002DFE5FE740F221115548FDF727FE5DE7D6
:104B10004FF491715248FDF721FE5BE740F22311FB
:104B20004F48FDF71BFE59E74FF492714C48FDF7D3
:104B300015FE5FE740F225114948FDF70FFE65E7D6
:104B40004FF493714648FDF709FE8EE740F22711B6
:104B50004348FDF703FE9FE74FF494714048FDF78B
:104B6000FDFD9EE72046FBF78BFF9EE71A6822F0CB
:104B700002021A60FFF7B8FD054623685A6812F072
:104B8000020F0DD0FFF7B0FD401B0A28F5D9636A6C
:104B900043F400336362052384F8203001209EE74C
:104BA000227E012A3DD01A6822F080021A60637EBC
:104BB000012B3BD02268136823F040031360A37ECF
:104BC000012B39D02268136823F020031360E37EA1
:104BD000012B37D02268136843F010031360237F42
:104BE000012B35D02268136823F008031360637F1C
:104BF000012B37D02268136823F004031360A368E5
:104C0000E268134322691343626913436268013AFD
:104C100021681343CB6100206062012384F82030B7
:104C20005DE71A6842F080021A60C0E722681368E4
:104C300043F040031360C2E72268136843F0200387
:104C40001360C4E72268136823F010031360C6E7FB
:104C50002268136843F008031360C8E7006400404B
:104C600004B800082268136843F004031360C6E721
:104C70000120704770B5056890F82030013BDBB229
:104C8000012B05D9436A43F480234362012070BDA0
:104C90000C460B68B3F5803F63D26368B3F5803F81
:104CA00065D2A368B3F5803F67D2E368B3F5803F70
:104CB00069D2A369012B6CD8E369012B6FD82369F2
:104CC000012B72D8236A012B75D863690D2B78D814
:104CD000D5F8003243F00103C5F80032636903F0F0
:104CE0001F03012202FA03F3D5F81C22D94322EA5A
:104CF0000302C5F81C22E269AAB9D5F80C220A40C1
:104D0000C5F80C22E668A088626940EA064048328D
:104D100045F83200A6682088626940EA06404832B9
:104D200005EBC2025060E269012A50D0A269002A54
:104D300064D1D5F804220A40C5F804222269002A69
:104D400062D1D5F814221140C5F81412226A012A42
:104D500060D0D5F8003223F00103C5F800320020FE
:104D600095E74FF454712E48FDF7F8FC95E740F2B3
:104D700051312B48FDF7F2FC93E740F252312848BD
:104D8000FDF7ECFC91E740F253312548FDF7E6FCD6
:104D90008FE74FF455712248FDF7E0FC8CE740F2B5
:104DA00055311F48FDF7DAFC89E740F256311C48BF
:104DB000FDF7D4FC86E740F257311948FDF7CEFCE9
:104DC00083E740F265311648FDF7C8FC80E7D5F867
:104DD0000C221A43C5F80C222668A088626940EAB2
:104DE0000640483245F83200A668A089626940EA68
:104DF0000640483205EBC202506097E7D5F804221E
:104E00001A43C5F8042299E7D5F814221A43C5F8C5
:104E100014229BE7D5F81C221343C5F81C3298E7EF
:104E200004B8000870B5044690F82050EDB2012D8A
:104E300006D0436A43F4002343620125284670BD2F
:104E4000022380F820300268136823F00103136006
:104E5000FFF74AFC064623685B6813F0010F0CD08D
:104E6000FFF742FC831B0A2BF5D9636A43F4003336
:104E70006362052384F82030E0E700256562DDE702
:104E800038B5044690F82030DBB2022B05D0436AD7
:104E900043F480134362012038BD0268136843F075
:104EA00001031360FFF720FC054623685A6812F0DF
:104EB000010F0DD1FFF718FC431B0A2BF5D9636ACC
:104EC00043F400336362052384F820300120E3E7D4
:104ED0001A6822F002021A60012384F820300020B0
:104EE000DAE70000D0B110B5044602680C4B9A42D4
:104EF00004D04FF4EA710B48FDF730FC2046FFF771
:104F0000BFFF2046FBF712FE2268136843F40043FC
:104F100013600020606284F8200010BD01207047FB
:104F20000064004004B8000870B505460E4690F8CD
:104F30002040E4B2072909D8013CE4B2012C0BD986
:104F40006B6A43F480236B62012070BD40F23751DD
:104F50000E48FDF703FCEFE716F0010F04D02A68B6
:104F6000936843F08003936016F0020F04D02A6820
:104F7000936843F40043936016F0040F04D02A684A
:104F8000936843F4000393600020DEE704B8000850
:104F90002DE9F04104460D4690461F4690F82060EA
:104FA000F6B2012910D8013EF6B2012E00F29E8021
:104FB00085B92368DB6813F0030F16D1636A43F4E5
:104FC00000136362012096E040F2D4514B48FDF794
:104FD000C5FBE8E723681B6913F0030F05D1636A7B
:104FE00043F400136362012085E0226805F11B038E
:104FF0001B01D35803F00403C8F80830002B66D116
:10500000226805F11B031B01D3585B0DC8F8003063
:10501000226805F11B031B01D25802F00202C8F8F6
:105020000C2022681A44526802F00F02C8F81020BF
:1050300022681A445268C2F30722C8F8182022686E
:1050400013445B681B0CC8F81430236803EB05138A
:10505000D3F8B8313B70236803EB0513D3F8B831AC
:10506000C3F307237B70236803EB0513D3F8B83130
:10507000C3F30743BB70236803EB0513D3F8B831C0
:105080001B0EFB70236803EB0513D3F8BC313B7197
:10509000236803EB0513D3F8BC31C3F307237B71FB
:1050A000236803EB0513D3F8BC31C3F30743BB718B
:1050B000236803EB0513D3F8BC311B0EFB717DB9DC
:1050C0002268D36843F02003D360002013E02268F5
:1050D00005F11B031B01D358DB08C8F8043097E720
:1050E0002268136943F020031361EEE7636A43F417
:1050F000802363620120BDE8F08100BF04B800088E
:1051000070B505460E4690F82040E4B20C4B99422B
:1051100009D8013CE4B2012C0BD96B6A43F480231B
:105120006B62012070BD40F264610648FDF716FB1A
:10513000EFE72B6859690E435E610020F2E700BF7C
:105140007F8F030004B800087047704770477047AE
:105150007047704770477047704770472DE9F84FA8
:10516000054603685C69D3F804809F68D3F80CB0E7
:10517000D3F810A0D3F8189014F001063BD017F024
:10518000010616D001229A6017F0020F08D117F01D
:10519000040F0CD117F0080606D04FF4805608E033
:1051A000FEF7F4FE002604E0FFF7D0FF01E04FF425
:1051B000006617F4807F0DD02B684FF480729A60E0
:1051C00017F4007F40F0868017F4806F00F086802F
:1051D00046F4005617F4803F0DD02B684FF4803210
:1051E0009A6017F4003F40F0838017F4802F00F09E
:1051F000838046F4004614F0080F07D01BF0100F10
:1052000004D046F400762B681022DA6014F0040F04
:1052100002D01BF0080F79D114F0020F04D02B68D4
:10522000DB6813F0030F78D114F0400F07D01AF0A9
:10523000100F04D046F480662B6810221A6114F017
:10524000200F02D01AF0080F6BD114F0100F04D009
:105250002B681B6913F0030F6AD114F4003F02D0CE
:1052600018F0100F68D114F4803F02D018F0080F26
:1052700069D114F4004F7AD018F0040F74D014F4EC
:10528000807F04D019F0010F01D046F0010614F41C
:10529000007F04D019F0020F01D046F0020614F48A
:1052A000806F04D019F0040F01D046F0040614F406
:1052B000006F59D019F0700956D0B9F1400F65D080
:1052C00058D8B9F1200F5ED0B9F1300F42D146F075
:1052D000200644E02846FFF737FF7BE717F4006F0E
:1052E00002D046F4804675E72846FFF730FF71E7A5
:1052F0002846FFF72AFF7EE717F4002F02D046F476
:10530000803678E72846FFF723FF74E72B680822EA
:10531000DA602846FFF71DFF7EE72846FEF7C0FD4E
:1053200082E72B6808221A612846FFF714FF8CE7F2
:105330002846FFF70FFF90E72B6810225A60284697
:10534000FFF70AFF8FE72B6808225A602846FFF70D
:1053500004FF8EE7B9F1100F01D146F008062A6864
:10536000936923F0700393612B6804225A609EB9FD
:10537000BDE8F88FB9F1500F0BD0B9F1600FEED145
:1053800046F48076EBE746F01006E8E746F0400684
:10539000E5E746F08006E2E76B6A1E436E62284648
:1053A000FEF7E4FDE4E7000010B50446C31E042B3D
:1053B0000FD80A4AD36823F4E0631B041B0C2402B1
:1053C00004F4E064234343F0BF6343F40033D36049
:1053D00010BDA6210248FDF7C1F9EAE700ED00E0A3
:1053E0003CB8000870B505460C4616460F2A25D86D
:1053F0000F2C28D81B4BDB68C3F30223C3F1070132
:10540000042928BF04211A1D062A21D9033B4FF085
:10541000FF3202FA01F124EA01049C4002FA03F38C
:1054200026EA03063443002D14DB2401E4B205F11F
:10543000604505F5614585F8004370BDBE210A4809
:10544000FDF78CF9D4E7BF210748FDF787F9D1E7CD
:105450000023DCE705F00F052401E4B2034B5C55A3
:10546000EBE700BF00ED00E03CB8000814ED00E001
:1054700010B5041E0ADB002C07DB04F01F026409D0
:1054800001239340044A42F8243010BDD22103483E
:10549000FDF764F9EFE700BF00E100E03CB8000869
:1054A00010B5041E0FDB002C0CDB04F01F02640996
:1054B000012393402034064A42F82430BFF34F8F33
:1054C000BFF36F8F10BDE2210248FDF747F9EAE70D
:1054D00000E100E03CB800080138B0F1807F0AD25A
:1054E000064B5860064AF02182F82310002098608D
:1054F00007221A6070470120704700BF10E000E0EB
:1055000000ED00E008B590F82530DBB2022B03D0A7
:105510000423C363012008BD0268136823F00E034F
:1055200013600268136823F001031360436C03F0F7
:105530001C03016C012202FA03F34B6080F8252062
:10554000002380F82430836B13B198470020E2E7F2
:105550000020E0E738B5036C196804682568436CDF
:1055600003F01C0304229A400A4215D015F0040FE0
:1055700012D0236813F0200F03D1236823F0040313
:105580002360436C03F01C02016C042393404B60C6
:10559000036B03B1984738BD02229A400A421CD0DF
:1055A00015F0020F19D0236813F0200F06D12368DD
:1055B00023F00A032360012380F82530436C03F0B5
:1055C0001C02016C022393404B60002380F82430BE
:1055D000C36A002BDFD09847DDE7082202FA03F305
:1055E0000B42D8D015F0080FD5D0236823F00E0356
:1055F0002360436C03F01C03016C012202FA03F3E5
:105600004B60C26380F82520002380F82430436B70
:10561000002BC0D09847BEE790F8250070470000E7
:1056200070B5044616461D46B0F1006F15D31C4BED
:105630001B88C3F30B03B3F5806F0BD0B3F5007F6A
:105640001CD0B3F5807F1DD0802B1FD0B0F1016F2F
:105650000AD302E0B0F1016F06D304F1604303F511
:105660001043B3F5806F15D20E4A536943F001031E
:1056700053612660BFF36F8F656070BD0A4B98421F
:10568000EBD8F1E7094B9842E7D8EDE7084B984291
:10569000E3D8E9E740F2BB210648FDF75FF8E3E70E
:1056A000E075FF1F00200240FFFF0708FFFF03080F
:1056B000FFFF010878B8000838B505460C46B0F180
:1056C000006F15D31D4B1B88C3F30B03B3F5806F1D
:1056D0000BD0B3F5007F24D0B3F5807F25D0802B8D
:1056E00027D0B0F1016F08D302E0B0F1016F04D30D
:1056F00040F2D9211248FDF731F8124A536943F4B8
:1057000080235361EFF3108172B6402354F8042BC9
:1057100045F8042B013B13F0FF03F7D181F3108808
:1057200038BD094B9842E3D8E7E7084B9842DFD8E9
:10573000E3E7074B9842DBD8DFE700BFE075FF1FC8
:1057400078B8000800200240FFFF0708FFFF0308A9
:10575000FFFF0108094B5B69002B01DB002070474C
:10576000064B074A9A6002F188329A605B69002B07
:1057700001DB002070470120704700BF002002407D
:1057800023016745034A536943F0004353610020F6
:10579000704700BF0020024038B50446FEF7A4FF62
:1057A0000546144B1B6913F4803F09D0B4F1FF3F49
:1057B000F7D0FEF799FF401BA042F2D3032015E07B
:1057C0000C4B1B690C4A134009D10A4B1B6913F09F
:1057D000010F0CD0074B01221A61002006E0074997
:1057E0004A681A434A60034A1361012038BD002009
:1057F000FCE700BF00200240FAC30200401A00206C
:105800002DE9F04117462B4A1278012A50D0044660
:105810000E469846274B01221A7002282DD84CF2CA
:105820005030FFF7B9FF054608BB224B00225A60F3
:10583000214B1B6813F4806F24D01F4A136823F494
:10584000806313601B4B02221A77FCB1631E012B8D
:1058500023D900244CF25030FFF79EFF054624B1B7
:10586000154A536923EA0404546100F07DF8114B92
:1058700000221A702846BDE8F081B2210F48FCF7DB
:105880006DFFCCE70B4B00221A77DEE73A46434622
:105890003046FFF7C5FE0124DCE739463046FFF706
:1058A0000BFF022C01D00024D4E74FF48024D1E771
:1058B0000225DFE7401A00200020024078B80008E7
:1058C00010B5044601280DD114F0010F04D0084A88
:1058D000536943F004035361054A536943F4803329
:1058E000536110BD40F2FF110248FCF737FFEBE7B0
:1058F00000200240B4B8000810B50446174B1B88BE
:10590000C3F30B03B3F5807F18D0802B1BD07F2807
:105910008CBF00230123DBB1114B5A6922F47E7244
:10592000E40004F4FF6414435C615A6942F002022B
:105930005A615A6942F480325A6110BD7F288CBF87
:1059400000230123E7E73F288CBF00230123E2E780
:1059500040F22A210348FCF701FFDDE7E075FF1F55
:1059600000200240B4B80008164B1B7FDBB2012BAD
:1059700001D0032B10D1144A116821F40071116079
:10598000116841F400611160116821F40061116037
:10599000116841F400711160023BDBB2012B03D9A5
:1059A000084B00221A777047074B1A6842F480525E
:1059B0001A601A6822F480521A601A6842F48062EF
:1059C0001A60EDE7401A002000200240F8B53D4B78
:1059D0001B78012B73D004460E463A4B01221A70F5
:1059E000036893423AD84CF25030FFF7D5FE074691
:1059F00000285FD1334B00225A60334B1B6813F4ED
:105A0000007F34D0304B1B6813F4806F2BD02E4AAC
:105A1000136823F4806313602A4B03221A772368E8
:105A2000012B36D04FF0FF333360A568A368E268DE
:105A30001344AB423CD961682846FFF75DFF4CF246
:105A40005030FFF7A9FE204A536923F47E7323F0F8
:105A500002035361074650BB0135E7E786211B4827
:105A6000FCF77CFEBFE7174B01221A77D7E7164BEE
:105A70001B6813F4806F08D0134A136823F4806303
:105A80001360104B02221A77C9E70E4B00221A77D7
:105A9000C5E76068FFF714FF4CF25030FFF77CFE5B
:105AA0000746094A536923F00403536100E0356057
:105AB000FFF75AFF034B00221A703846F8BD022741
:105AC000FBE700BF401A002000200240B4B80008E5
:105AD0002DE9F04182B080460C46B0F1904F16D0CF
:105AE000A34B984213D003F5806398420FD003F57F
:105AF000806398420BD003F58063984207D003F58A
:105B00004063984203D0AA219A48FCF727FE2368F5
:105B10009AB212B11B0C1B041BB1AB219548FCF7C8
:105B20001DFE6368012B1BD9112B19D0022B17D036
:105B3000122B15D0B3F5881F12D0B3F5041F0FD068
:105B4000B3F5441F0CD0B3F5901F09D0B3F5081F6F
:105B500006D0B3F5481F03D0032B01D00B2B01D186
:105B6000002593E0AC218348FCF7F8FDF8E7E368F3
:105B7000032B17D8D8F80820690003238B4022EAAA
:105B80000302E3688B401343C8F80830D8F80420B8
:105B900022EA07026368C3F30017AF401743C8F84F
:105BA000047082E0BB217348FCF7D8FDE2E7DC21FA
:105BB0007048FCF7D3FD81E0B8F1904F16D06C4BE4
:105BC000984513D003F5806398450FD003F58063A3
:105BD00098450BD003F58063984507D003F54063E3
:105BE000984503D0E8216348FCF7B8FD23690F2BE3
:105BF00010D8EA08083258F8220005F00703990087
:105C00000F238B4020EA030023698B40034348F8AD
:105C1000223065E0E9215748FCF7A0FDE9E70423BD
:105C200000E000238B4003430232534941F8223005
:105C3000524B9A68F34322EA0601606810F4801F11
:105C400001D046EA02014D4A9160D26803EA02019E
:105C5000606810F4001F01D046EA0201474AD16093
:105C6000526803EA0201606810F4003F01D046EA7E
:105C70000201424A516012681340616811F4803F8A
:105C800001D046EA02033D4A13600135266836FA20
:105C900005F369D00127AF403E40F6D0636803F0BA
:105CA0000303013B012B7FF662AF636803F003033C
:105CB000032B0FD0A368022B3FF679AFD8F80C2046
:105CC000690003238B4022EA0302A3688B4013433D
:105CD000C8F80C30636803F00303022B3FF46CAF89
:105CE000D8F80020690003238B4022EA030263688E
:105CF00003F003038B401343C8F80030636813F4C8
:105D0000403FC2D01E4B1A6E42F001021A661B6E53
:105D100003F001030193019BAA08911C164B53F851
:105D2000210005F0030399000F238B4020EA0300B4
:105D3000B8F1904F3FF475AF0D4B98450ED003F579
:105D4000806398450CD003F5806398450AD003F52D
:105D5000806398453FF463AF072363E7012361E75E
:105D600002235FE703235DE702B0BDE8F08100BFD7
:105D700000040048F4B8000800000140000401409D
:105D800000100240F8B504460D46B0F1904F17D010
:105D90004D4B984214D003F58063984210D003F520
:105DA000806398420CD003F58063984208D003F5D5
:105DB0004063984204D04FF49D714448FCF7CEFCF8
:105DC000ABB213B12B0C1B0423B140F23B113F4883
:105DD000FCF7C4FC00232AE0042600E0002606FAB3
:105DE00001F1814253D020685900032606FA01F1DF
:105DF0000843206023FA06F0083054F8206003F0CE
:105E000007074FEA870C0F2707FA0CF726EA070661
:105E100044F82060A06820EA0100A060606820EAE1
:105E200002026260E26822EA0101E160013335FAB0
:105E300003F247D001229A4012EA050EF6D04FEA4B
:105E4000930C0CF10200224951F8200003F00301E9
:105E500089000F2606FA01F73840B4F1904FBDD003
:105E6000194EB4420DD006F58066B4420BD006F54B
:105E70008066B44209D006F58066B442ACD00726ED
:105E8000ADE70126ABE70226A9E70326A7E71149FC
:105E9000086820EA0E000860486820EA0E004860A2
:105EA000C86820EA0E00C860886820EA0E00886092
:105EB00007480CF1020150F8216026EA070640F875
:105EC000216090E7F8BD00BF00040048F4B8000866
:105ED000000001400004014070B5054614460E461E
:105EE00021B1012C08D86CB1AE6170BD4FF4D771EF
:105EF0000548FCF733FCF4E740F2AF110248FCF729
:105F00002DFCF0E7AE62F0E7F4B8000838B50546BE
:105F10000C4641B16B6904EA030224EA030444EA33
:105F20000244AC6138BD4FF4E3710248FCF716FC43
:105F3000F0E700BFF4B8000803689A6912F0020F96
:105F400001D000229A6203689A6912F0010F03D10E
:105F50009A6942F001029A61704711F0010F09D06D
:105F600090F8413003F02803282B01D0F22302E0FF
:105F7000422300E0002311F0020F29D010B443F0B7
:105F8000440490F8412002F02802282A12D043F05D
:105F9000F40311F4004F0FD1102910D0202911D093
:105FA000402912D001680A6822EA03030B605DF8F9
:105FB000044B70472346ECE743F0B803ECE743F0AB
:105FC0009003EBE743F02003EAE743F04003E9E7FF
:105FD00011F4004F0BD110290CD020290DD04029ED
:105FE0000ED001680A6822EA03030B60704743F091
:105FF000B803F0E743F09003EFE743F02003EEE748
:1060000043F04003EDE70000002800F0B38010B536
:1060100004460368584A93420CD002F580629342CA
:1060200008D002F58062934204D040F21521534813
:10603000FCF794FBA368B3F5806F60D2E368013B83
:10604000012B62D8236913B1B3F5004F63D16369A3
:10605000FF2B66D8A369072B69D8E36913B1B3F5A1
:10606000002F6AD1236A13B1B3F5003F6BD194F8C6
:106070004130002B6DD0242384F84130226813680E
:1060800023F0010313606368226823F070631361D7
:106090002268936823F400439360E368012B5ED089
:1060A000A368226843F404439360E368022B5CD046
:1060B0002268536843F0007343F40043536022683E
:1060C000D36823F40043D360236962691343A16951
:1060D000226843EA0123D360E369216A22680B4303
:1060E00013602268136843F00103136000206064AA
:1060F000202384F84130206384F8420010BD40F230
:1061000016211E48FCF72AFB98E740F217211B488E
:10611000FCF724FB96E74FF406711848FCF71EFBCA
:1061200095E740F219211548FCF718FB92E740F279
:106130001A211248FCF712FB8FE740F21B210F488F
:10614000FCF70CFB8EE74FF407710C48FCF706FBDD
:106150008DE784F840302046FCF728F98BE7A368E8
:10616000226843F4004393609FE723684FF4006282
:106170005A609DE7012070470054004030B9000884
:1061800008B5036899691A68436B03B1984708BD5D
:106190007047704710B5044603681A68002180F8FC
:1061A000421012F4804F0ED01A6822F480421A6016
:1061B00094F84130DBB2292B0DD094F84130DBB29A
:1061C0002A2B18D010BD12F4004FF1D01A6822F417
:1061D00000421A60ECE7282384F84130212323632E
:1061E00001212046FFF7B9FE002384F84030204605
:1061F000FFF7CEFFE6E7282384F84130222323630C
:1062000002212046FFF7A9FE002384F840302046F3
:10621000FFF7BFFFD6E77047F8B5044690F8413066
:1062200003F02803282B06D003680822DA61002334
:1062300080F84030F8BD03689E69C6F300469A694D
:10624000120C02F0FE059A68C2F30902DF6807F03B
:10625000FE07C168022922D185EAD21515F0060F82
:1062600010D1816C01318164816C0229E2D100215D
:1062700081640820D86184F8401031462046FFF739
:10628000CAFFD7E74FF40041FFF767FE002384F809
:1062900040303A4631462046FFF7BDFFCAE74FF48B
:1062A0000041FFF75AFE002384F840302A46314669
:1062B0002046FFF7B0FFBDE77047000010B5044669
:1062C000174BC36200230363202280F8412080F82B
:1062D0004230436311F0040F13D003685A6A436AD3
